:020000040800F2
:100000000000022021250008B9070008BB070008EE
:10001000BD070008BF070008C10700080000000076
:10002000000000000000000000000000D1200008D7
:10003000C30700080000000071210008D521000856
:100040007125000871250008712500087125000838
:100050007125000871250008712500087125000828
:100060007125000871250008712500087125000818
:100070007125000871250008712500087125000808
:1000800071250008712500087125000871250008F8
:1000900071250008712500087125000871250008E8
:1000A00071250008C50700087125000871250008A2
:1000B00071250008712500087125000871250008C8
:1000C00071250008712500087125000871250008B8
:1000D00071250008712500087125000871250008A8
:1000E0007125000871250008712500087125000898
:1000F0007125000871250008712500087125000888
:100100007125000871250008712500087125000877
:100110007125000871250008712500087125000867
:100120007125000871250008712500087125000857
:100130007125000871250008712500087125000847
:100140007125000871250008712500087125000837
:100150007125000871250008712500087125000827
:100160007125000871250008712500087125000817
:1001700071250008712500087125000800000000A5
:0801800071250008712500083B
:1001900010B5054C237833B9044B13B10448AFF3C1
:1001A00000800123237010BD140000200000000017
:1001B000CC25000808B5034B1BB103490348AFF336
:1001C000008008BD0000000018000020CC250008B9
:1001D00053B94AB9002908BF00281CBF4FF0FF31AE
:1001E0004FF0FF3000F074B9ADF1080C6DE904CEAA
:1001F00000F006F8DDF804E0DDE9022304B0704702
:100200002DE9F047089D04468E46002B4DD18A42C9
:10021000944669D9B2FA82F252B101FA02F3C2F1FC
:10022000200120FA01F10CFA02FC41EA030E94408D
:100230004FEA1C48210CBEFBF8F61FFA8CF708FBAE
:1002400016E341EA034306FB07F199420AD91CEB86
:10025000030306F1FF3080F01F81994240F21C81B8
:10026000023E63445B1AA4B2B3FBF8F008FB103300
:1002700044EA034400FB07F7A7420AD91CEB040435
:1002800000F1FF3380F00A81A74240F20781644405
:10029000023840EA0640E41B00261DB1D44000238A
:1002A000C5E900433146BDE8F0878B4209D9002DEE
:1002B00000F0EF800026C5E9000130463146BDE878
:1002C000F087B3FA83F6002E4AD18B4202D38242E2
:1002D00000F2F980841A61EB030301209E46002D91
:1002E000E0D0C5E9004EDDE702B9FFDEB2FA82F2E6
:1002F000002A40F09280A1EB0C014FEA1C471FFA44
:100300008CFE0126200CB1FBF7F307FB131140EA2A
:1003100001410EFB03F0884208D91CEB010103F1F7
:10032000FF3802D2884200F2CB804346091AA4B2B9
:10033000B1FBF7F007FB101144EA01440EFB00FE8D
:10034000A64508D91CEB040400F1FF3102D2A645F2
:1003500000F2BB800846A4EB0E0440EA03409CE791
:10036000C6F12007B34022FA07FC4CEA030C20FA3E
:1003700007F401FA06F31C43F9404FEA1C4900FA5E
:1003800006F3B1FBF9F8200C1FFA8CFE09FB1811DB
:1003900040EA014108FB0EF0884202FA06F20BD94E
:1003A0001CEB010108F1FF3A80F08880884240F29E
:1003B0008580A8F102086144091AA4B2B1FBF9F0E2
:1003C00009FB101144EA014100FB0EFE8E4508D9DD
:1003D0001CEB010100F1FF346CD28E456AD9023862
:1003E000614440EA0840A0FB0294A1EB0E01A14247
:1003F000C846A64656D353D05DB1B3EB080261EBB5
:100400000E0101FA07F722FA06F3F1401F43C5E98E
:10041000007100263146BDE8F087C2F12003D840C4
:100420000CFA02FC21FA03F3914001434FEA1C4706
:100430001FFA8CFEB3FBF7F007FB10360B0C43EAF8
:10044000064300FB0EF69E4204FA02F408D91CEBA8
:10045000030300F1FF382FD29E422DD902386344A6
:100460009B1B89B2B3FBF7F607FB163341EA034146
:1004700006FB0EF38B4208D91CEB010106F1FF3895
:1004800016D28B4214D9023E6144C91A46EA00468C
:1004900038E72E46284605E70646E3E61846F8E61E
:1004A0004B45A9D2B9EB020864EB0C0E0138A3E767
:1004B0004646EAE7204694E74046D1E7D0467BE748
:1004C000023B614432E7304609E76444023842E7C0
:1004D000704700BF30B589B000240394049405949C
:1004E0000694079400941D4B1A6B42F080021A6325
:1004F0001A6B02F080020092009A01941A6B42F08B
:1005000008021A631A6B02F008020192019A02941F
:100510001A6B42F010021A631B6B03F01003029374
:10052000029B0F4D22464FF4E041284600F0DDFDCE
:100530004FF4E0430393012304930594069403A925
:10054000284600F0D9FC0323039304940223059367
:1005500003A9044800F0D0FC09B030BD00380240C7
:10056000000C02400010024008B5054B93E807005C
:1005700001F0E6FE4FF4FA7001F02AFCFAE700BF42
:100580006400002008B501210B4800F0A7FD68B108
:100590000A4B5B6801221A60084B93E8070001F0E0
:1005A0006BFF4FF4FA7001F013FCFAE7034B5B6842
:1005B00000221A60F0E700BF001002403000002067
:1005C00008B502210A4800F089FD60B1094B5B685B
:1005D00001221A60074B93E8070001F04DFF01204C
:1005E00001F0F6FBFBE7034B5B6800221A60F1E7C2
:1005F000001002404C00002008B50268034B9A42EC
:1006000000D008BD00F0EAFDFBE700BF000001409C
:1006100072B6FEE700B595B03022002108A801F0BF
:10062000CDFF00230393049305930693079301934F
:100630001F4A116C41F080511164126C02F080521B
:100640000192019A02931B4A116841F480411160A2
:10065000126802F480420292029A02220892012158
:100660000B9110210C910E920F9308231093A82345
:10067000119312920423139308A800F00BF998B970
:100680000F23039302230493002305934FF4A053F5
:1006900006934FF480530793052103A800F048FB0D
:1006A00020B915B05DF804FBFFF7B2FFFFF7B0FF0C
:1006B000003802400070004080B5A0B000F074FD2A
:1006C000FFF7A8FFFFF706FF294E2A4B2A4A3146BB
:1006D0001DA801F020FF294F294B2A4A39461AA8A4
:1006E00001F019FF284D6C463B463246274920460B
:1006F00001F0BEFE94E8070085E80700244C0DF1E8
:100700004C0CA646BEE80F00ACE80F009EE80700C0
:100710008CE80700002113A801F025FB1D4B186091
:100720000DF1300C04F11C0EBEE80F00ACE80F0018
:100730009EE807008CE8070000210CA801F013FBDD
:10074000154B18600DF1140E04F1380CBCE80F00C5
:10075000AEE80F009CE807008EE80700002105A81E
:1007600001F001FB0D4B186001F0F8FAFEE700BF45
:1007700000000020400000203C0000205C00002021
:10078000600000205800002064000020610000206C
:10079000E4250008700000204400002048000020EC
:1007A000034B0360034B0B6080231360704700BF53
:1007B0007402002074000020FEE7FEE7FEE7FEE77B
:1007C000FEE7704708B5024800F064FD08BD00BFB1
:1007D000C802002000B583B0002200920D4B596C76
:1007E00041F480415964596C01F4804100910099B1
:1007F0000192196C41F0805119641B6C03F0805315
:100800000193019B0F216FF0010000F087FC03B002
:100810005DF804FB0038024010B588B001460022A4
:10082000192000F07BFC192000F0B0FC002401949A
:10083000144B5A6C42F001025A645B6C03F00103E2
:100840000193019B02A903A800F038FB00F026FBEE
:1008500043000D48A0FB03239B0C013B0B480C4AB3
:10086000026040F2E732C26043600461846000F0DD
:1008700033FE10B1012008B010BD044800F0C2FCE6
:10088000F9E700BF0038024083DE1B43C8020020A6
:1008900000000140002800F0E08170B582B00446FD
:1008A000036813F0010F3BD09F4B9B6803F00C03D0
:1008B000042B2CD09C4B9B6803F00C03082B21D0FD
:1008C0006368B3F5803F4FD0B3F5A02F52D0964B5D
:1008D0001A6822F480321A601A6822F480221A60A0
:1008E0006368002B50D000F085FC05468E4B1B68DA
:1008F00013F4003F14D100F07DFC401B6428F5D9AF
:100900000320B1E1884B5B6813F4800FD8D0864B8D
:100910001B6813F4003F03D06368002B00F09F8135
:10092000236813F0020F54D07F4B9B6813F00C0F19
:100930003ED07D4B9B6803F00C03082B33D0E3685B
:10094000002B68D0794B01221A6000F053FC054659
:10095000754B1B6813F0020F54D100F04BFC401B89
:100960000228F5D903207FE16F4A136843F48033EE
:100970001360B5E76C4B1A6842F480221A601A685B
:1009800042F480321A60ABE700F034FC0546664B57
:100990001B6813F4003FC3D000F02CFC401B6428FC
:1009A000F5D9032060E1604B5B6813F4800FC6D17A
:1009B0005D4B1B6813F0020F03D0E368012B40F07E
:1009C0005081594A136823F0F803216943EAC103AF
:1009D0001360236813F0080F42D063696BB3534B65
:1009E0000122C3F8802E00F005FC05464E4B5B6FDC
:1009F00013F0020F34D100F0FDFB401B0228F5D9A3
:100A0000032031E1484A136823F0F803216943EADF
:100A1000C1031360DDE7454B00221A6000F0EAFBDA
:100A20000546414B1B6813F0020FD2D000F0E2FBE9
:100A3000401B0228F5D9032016E13C4B0022C3F8E5
:100A4000802E00F0D7FB0546374B5B6F13F0020F8B
:100A500006D000F0CFFB401B0228F5D9032003E1AC
:100A6000236813F0040F77D02F4B1B6C13F0805FBB
:100A700033D1002301932C4B1A6C42F080521A643C
:100A80001B6C03F080530193019B0125284B1B68CD
:100A900013F4807F23D0A368012B34D0052B38D0EA
:100AA000214B1A6F22F001021A671A6F22F004021A
:100AB0001A67A368002B3DD000F09CFB06461A4B3A
:100AC0001B6F13F0020F46D100F094FB801B41F224
:100AD00088339842F3D90320C6E00025D6E7144AAC
:100AE000136843F48073136000F084FB0646104BD8
:100AF0001B6813F4807FCED100F07CFB801B0228A2
:100B0000F5D90320B0E0084A136F43F001031367DF
:100B1000CFE7054B1A6F42F004021A671A6F42F0D2
:100B200001021A67C5E700BF0038024000004742D3
:100B30000070004000F05EFB0646524B1B6F13F046
:100B4000020F08D000F056FB801B41F28833984218
:100B5000F3D9032088E0EDB9A369002B00F083806E
:100B6000484A926802F00C02082A51D0022B17D092
:100B7000454B00221A6600F03DFB0446414B1B68C2
:100B800013F0007F42D000F035FB001B0228F5D99E
:100B9000032069E03B4A136C23F080531364DBE7C6
:100BA000394B00221A6600F025FB0546354B1B68C1
:100BB00013F0007F06D000F01DFB401B0228F5D982
:100BC000032051E0E369226A1343626A43EA821315
:100BD000A26A5208013A43EA0243E26A43EA026324
:100BE000284A5360284B01221A6600F003FB044692
:100BF000244B1B6813F0007F06D100F0FBFA001BAA
:100C00000228F5D903202FE000202DE000202BE062
:100C1000012B2BD01B4B5B6803F48001E2699142EE
:100C200026D103F03F02216A8A4223D1616A47F646
:100C3000C0721A40B2EB811F1ED103F44031A26A88
:100C40005208013AB1EB024F18D103F07063E26A27
:100C5000B3EB026F14D1002006E0012070470120A1
:100C600002E0012000E0002002B070BD0120FBE79F
:100C70000120F9E70120F7E70120F5E70120F3E77C
:100C80000120F1E7003802400000474208B5254B3B
:100C90009B6803F00C03042B3FD0082B3FD1214B62
:100CA0005A6802F03F025B6813F4800F12D01D4BAC
:100CB0005968C1F388111C480023A1FB0001FFF70C
:100CC00087FA184B5B68C3F3014301335B00B0FB49
:100CD000F3F025E0134B5968C1F3881C4FEA4C111F
:100CE000B1EB0C006EEB0E0E4FEA8E1343EA9063ED
:100CF0008101091A63EB0E03DB0043EA5173C9005B
:100D000011EB0C0C43F10003990200234FEA8C20F5
:100D100041EA9C51FFF75CFAD3E7034800E003483F
:100D200008BD00BF0038024040787D010024F40077
:100D3000002800F09B8070B50D4604464F4B1B68A1
:100D400003F007038B4208D2CBB24C4A13701368EE
:100D500003F007038B4240F08B80236813F0020FEF
:100D600017D013F0040F04D0454A936843F4E053BE
:100D70009360236813F0080F04D0414A936843F44A
:100D8000604393603E4A936823F0F003A1680B43ED
:100D90009360236813F0010F32D06368012B21D0D8
:100DA0009A1E012A25D9364A126812F0020F61D024
:100DB00033498A6822F0030213438B6000F01AFA69
:100DC00006462F4B9B6803F00C036268B3EB820F5F
:100DD00016D000F00FFA801B41F288339842F0D908
:100DE000032042E0264A126812F4003FE0D10120BD
:100DF0003BE0234A126812F0007FD9D1012034E091
:100E00001E4B1B6803F00703AB4207D9EAB21B4B2A
:100E10001A701B6803F00703AB422DD1236813F04F
:100E2000040F06D0164A936823F4E053E1680B439D
:100E30009360236813F0080F07D0114A936823F4D6
:100E40006043216943EAC1039360FFF71FFF0C4B26
:100E50009B68C3F303130B4AD35CD8400A4B18605A
:100E60000A4B1868FFF7D8FC002070BD01207047BE
:100E70000120FAE70120F8E70120F6E7003C0240F4
:100E800000380240682600080C00002008000020FE
:100E9000014B1868704700BF0C00002008B5FFF731
:100EA000F7FF044B9B68C3F34233034AD35CD8403B
:100EB00008BD00BF00380240782600080F230360F9
:100EC0000B4B9A6802F0030242609A6802F0F0024B
:100ED00082609A6802F4E052C2609B68DB0803F407
:100EE000E0530361034B1B6803F007030B6070477B
:100EF00000380240003C024000230F2B00F2E48047
:100F000070B582B060E085685E000324B44025EAD5
:100F10000405CC68B4402C438460456825EA02058A
:100F20004C68C4F300129A402A4342605AE0DC083D
:100F3000083450F8246003F0070295000F22AA40FD
:100F400026EA020E0A69AA4042EA0E0240F824206C
:100F50005CE0072200E0002202FA0EF22A4302348B
:100F60005A4D45F824205A4A14686FEA0C0224EAC4
:100F70000C054E6816F4803F01D04CEA0405544C31
:100F80002560646802EA04054E6816F4003F01D04B
:100F90004CEA04054E4C6560A46802EA04054E68FC
:100FA00016F4801F01D04CEA0405494CA560E468A2
:100FB00022404D6815F4001F01D04CEA0402444C55
:100FC000E26001330F2B7DD801229A400C6804EABD
:100FD000020C32EA0404F4D14C6804F00304013C2E
:100FE000012C90D94A6802F00302032A09D0C46890
:100FF0005D000322AA4024EA02048A68AA40224330
:10100000C2604A6802F00302022A90D004684FEAE4
:10101000430E032202FA0EF224EA02044A6802F0A6
:10102000030202FA0EF2224302604A6812F4403FC1
:10103000C7D000220192274A546C44F4804454647F
:10104000526C02F480420192019A9C08A51C1F4A2E
:1010500052F8255003F003024FEA820E0F2202FAE3
:101060000EF225EA02051C4A90423FF474AF02F5E5
:10107000806290421AD002F58062904218D002F548
:101080008062904216D002F58062904214D002F540
:101090008062904212D002F58062904210D002F538
:1010A000806290423FF455AF082255E7012253E792
:1010B000022251E703224FE704224DE705224BE7C6
:1010C000062249E702B070BD704700BF00380140FA
:1010D000003C014000380240000002400369194210
:1010E00001D001207047002070470AB1816170472C
:1010F0000904816170470000074AD36823F4E06364
:101100001B041B0C000200F4E060034343F0BF63C8
:1011100043F40033D360704700ED00E000B5194B95
:10112000DB68C3F30223C3F1070CBCF1040F28BF33
:101130004FF0040C03F1040EBEF1060F18D9033B67
:101140004FF0FF3E0EFA0CFC21EA0C0199400EFA1A
:1011500003F322EA0303194300280BDB0901C9B298
:1011600000F1604000F5614080F800135DF804FB79
:101170000023E5E700F00F000901C9B2024B195442
:10118000F4E700BF00ED00E014ED00E0002807DB0D
:1011900000F01F02400901239340024A42F8203028
:1011A000704700BF00E100E008B50B4B1A6842F43D
:1011B00000721A601A6842F480621A601A6842F477
:1011C00080721A600320FFF797FF0F20FFF724FBC0
:1011D000FFF700FB002008BD003C0240034A1168F5
:1011E000034B1B780B441360704700BF10030020B3
:1011F00004000020014B1868704700BF1003002056
:101200007047000090F83D30DBB2012B37D102234C
:1012100080F83D300268D36843F00103D36003686F
:10122000194A934220D0B3F1804F1DD0A2F57C42E1
:10123000934219D002F58062934215D002F5806284
:10124000934211D002F5784293420DD002F57052CC
:10125000934209D0A2F59432934205D01A6842F025
:1012600001021A60002070479A6802F00702062AFD
:1012700007D01A6842F001021A600020704701206E
:1012800070470020704700BF000001407047704762
:101290007047704710B5044603681A6912F0020FD0
:1012A00011D0DA6812F0020F0DD06FF002021A614D
:1012B0000123037703689B6913F0030F70D0FFF7D6
:1012C000E6FF0023237723681A6912F0040F12D077
:1012D000DA6812F0040F0ED06FF004021A610223D4
:1012E000237723689B6913F4407F5FD02046FFF784
:1012F000CEFF0023237723681A6912F0080F12D05B
:10130000DA6812F0080F0ED06FF008021A61042399
:1013100023772368DB6913F0030F4ED02046FFF7D5
:10132000B6FF0023237723681A6912F0100F12D03A
:10133000DA6812F0100F0ED06FF010021A61082355
:1013400023772368DB6913F4407F3DD02046FFF705
:101350009EFF0023237723681A6912F0010F03D040
:10136000DA6812F0010F36D123681A6912F0800F83
:1013700003D0DA6812F0800F34D123681A6912F0B2
:10138000400F03D0DA6812F0400F32D123681A6997
:1013900012F0200F03D0DA6812F0200F30D110BD08
:1013A000FFF774FF2046FFF773FF8AE72046FFF739
:1013B0006DFF2046FFF76CFF9BE72046FFF766FFB7
:1013C0002046FFF765FFACE72046FFF75FFF2046AA
:1013D000FFF75EFFBDE76FF001021A612046FFF7DD
:1013E0000BF9C1E76FF080021A61204600F0A1F806
:1013F000C3E76FF040021A612046FFF74AFFC5E7D6
:101400006FF020021A61204600F092F8C7E7000052
:101410000368304A904212D0B0F1804F0FD0A2F54D
:101420007C4290420BD002F58062904207D002F5D8
:101430008062904203D002F57842904203D123F0BB
:1014400070034A681343234A90422AD0B0F1804F78
:1014500027D0A2F57C42904223D002F580629042D0
:101460001FD002F5806290421BD002F57842904274
:1014700017D002F57052904213D002F5806290426C
:101480000FD002F5806290420BD0A2F598329042C4
:1014900007D002F58062904203D002F5806290424C
:1014A00003D123F44073CA68134323F080034A69CD
:1014B000134303608B68C3620B688362054B9842D9
:1014C00003D003F58063984201D10B6903630123C4
:1014D000436170470000014040B310B5044690F8E6
:1014E0003D30F3B1022384F83D30214651F8040B1E
:1014F000FFF78EFF012384F8463084F83E3084F8ED
:101500003F3084F8403084F8413084F8423084F829
:10151000433084F8443084F8453084F83D3000206E
:1015200010BD80F83C30FFF76BFEDBE70120704711
:1015300070477047034AD2F8883043F47003C2F80A
:101540008830704700ED00E000F1080343604FF081
:10155000FF328260C3600361002303607047002391
:101560000361704743684B609A688A605160996074
:101570000861036801330360704730B40D68B5F14A
:10158000FF3F11D000F108031C465B681A68AA42AD
:10159000FAD963684B6099608C6061600861036888
:1015A0000133036030BC70470469F2E703694168A6
:1015B00082688A60416851605A68824206D000227F
:1015C00002611A68013A1A601868704782685A60A6
:1015D000F5E70000084B1B681B6823B9074B4FF069
:1015E000FF321A607047044B1B68DB68DB685A687F
:1015F000024B1A60704700BF18030020EC03002064
:101600002DE9F04707469846089DDDF824900A9C8E
:10161000266B02F18042013A06EB820626F00706AD
:1016200000293AD08E464FF0000CBCF10F0F0BD8BA
:101630001EF80C2004EB0C0383F834201EF80C3049
:1016400013B10CF1010CF0E7002384F84330062DB0
:1016500000D90625E56265644FF0000AC4F848A089
:10166000201DFFF77CFF04F11800FFF778FF2461CD
:10167000C5F10705A5616462C4F84CA084F850A0C8
:1016800042463946304600F009FD2060B9F1000FAE
:1016900001D0C9F80040BDE8F087002384F8343059
:1016A000D5E7000038B5002407E004EB840293007E
:1016B0000E481844FFF748FF0134062CF5D90C4DAD
:1016C0002846FFF741FF0B4C2046FFF73DFF0A4835
:1016D000FFF73AFF0948FFF737FF0948FFF734FFE4
:1016E000084B1D60084B1C6038BD00BF2003002064
:1016F000C0030020D4030020F803002024040020AD
:1017000010040020180300201C03002010B504461C
:1017100000F0F0FC214A136801331360204B1B6872
:101720005BB1204B1B686BB91D4B1B68DA6AE36A1F
:101730009A4207D81A4B1C6004E0194B1C601368CE
:10174000012B28D0184A136801331360E06A012383
:101750008340164A11680B43136000EB8000211D83
:10176000134B03EB8000FFF7FDFE00F0E5FC0D4B93
:101770001B687BB10A4B1B68DA6AE36A9A4209D29A
:101780004FF0E0234FF08052C3F8042DBFF34F8F8A
:10179000BFF36F8F10BDFFF785FFD3E7AC030020C9
:1017A000140300200C040020B8030020BC03002018
:1017B0002003002010B5044690F8513063B1012B8E
:1017C00011D0022B0ED04FF0500383F31188BFF3DA
:1017D0006F8FBFF34F8FFEE7006B00F0E3FB2046F7
:1017E00000F0E0FB10BD00F0DDFBFBE70F4B1B68DA
:1017F000D3B110B500F07EFC0D4BDB68DC68201D1A
:10180000FFF7D4FE0B4A1368013B1360074A1368C5
:10181000013B136000F090FC2046FFF7CBFF034B29
:101820001B68002BE6D110BD704700BFB00300203D
:1018300024040020AC03002008B5FFF7D7FF074BB6
:101840001B68012BF9D94FF0E0234FF08052C3F809
:10185000042DBFF34F8FBFF36F8FEEE720030020FF
:1018600070B504460D461D4B1E681D4B18680430AC
:10187000FFF79CFE50B91A4B1B68DA6A012303FA82
:1018800002F218490B6823EA02030B60B4F1FF3F30
:101890000DD03444124B1B685C60A64210D9124B29
:1018A00018680F4B19680431FFF767FE70BD002DF3
:1018B000EFD00B4B196804310C48FFF753FEF5E7E6
:1018C0000B4B1868064B19680431FFF756FE094B9D
:1018D0001B68A342EAD9074B1C60E7E738040020E5
:1018E00014030020BC0300201C030020100400206F
:1018F00018030020EC03002030B587B00B9C7CB1AE
:101900000C9DB5B154250495049D542D1AD04FF06B
:10191000500383F31188BFF36F8FBFF34F8FFEE740
:101920004FF0500383F31188BFF36F8FBFF34F8FD6
:10193000FEE74FF0500383F31188BFF36F8FBFF3BF
:101940004F8FFEE7049D0C9D2C63022485F85140C7
:1019500000240394029505AC01940A9C0094FFF7BF
:101960004FFE0C98FFF7D2FE059807B030BD2DE969
:10197000F04385B00746884614461E46900000F0A6
:1019800093FA00B38146542000F08EFA0546B0B1B8
:10199000C0F83090E5B1002385F8513003930295EB
:1019A0000D9B01930C9B00933346224641463846DB
:1019B000FFF726FE2846FFF7A9FE012005E048466E
:1019C00000F0F0FAE6E74FF0FF3005B0BDE8F08335
:1019D0004FF0FF30F9E7000010B588B000240594FF
:1019E000069407AA06A905A8FEF7DAFE059B02934E
:1019F000069B019300942346079A0E490E48FFF771
:101A00007BFF0E4B186090B14FF0500383F31188A9
:101A1000BFF36F8FBFF34F8F094B4FF0FF321A6048
:101A2000084B01221A60084B1C6000F0FDFB08B057
:101A300010BD00BF8026000839180008E803002008
:101A4000EC0300200C04002038040020024A136834
:101A500001331360704700BFB4030020F8B53A4B60
:101A60001B68002B69D1394B1D6801351D60C5B954
:101A7000374B1B681B6843B14FF0500383F3118849
:101A8000BFF36F8FBFF34F8FFEE7314A1168314BC1
:101A9000186810601960304A136801331360FFF74B
:101AA00099FD2E4B1B68AB423DD900272C4B1B6880
:101AB000DB6A03EB83039A002A4B9B58012B00D966
:101AC0000127294B1B68002B3CD001273AE0012756
:101AD0001F4B1B681B6843B31D4B1B68DB68DC682E
:101AE00063689D4226D3261D3046FFF75FFDA36A3B
:101AF0001BB104F11800FFF759FDE36A01229A4077
:101B00001A49086802430A6003EB83039A003146CE
:101B100014481044FFF726FDE26A114B1B68DB6A8C
:101B20009A42D4D2D4E70027D2E70C4B4FF0FF32D1
:101B30001A60BBE7094A1360B8E70D4A136801331E
:101B4000136000273846F8BDB40300203804002095
:101B5000180300201C030020F0030020EC030020E9
:101B600014030020200300203C040020BC030020BC
:101B7000F403002038B5354B1B6843B94FF05003D0
:101B800083F31188BFF36F8FBFF34F8FFEE700F031
:101B9000B1FA2E4B1A68013A1A601B68002B4FD11C
:101BA0002B4B1B680BB900244BE00024294B1B680E
:101BB0001BB3284BDB68DC6804F11800FFF7F6FC68
:101BC000251D2846FFF7F2FCE06A01238340224AE4
:101BD00011680B43136000EB800029461F4B03EB99
:101BE0008000FFF7BFFCE26A1D4B1B68DB6A9A426C
:101BF000DCD31C4B01221A60D8E70CB1FFF7EAFCDA
:101C0000194B1C6884B9174B1C68D4B14FF0E02302
:101C10004FF08052C3F8042DBFF34F8FBFF36F8F87
:101C200001240EE0013C07D0FFF718FF0028F9D08F
:101C30000C4B01221A60F5E70B4B00221A60E2E719
:101C4000002400F079FA204638BD00BFB40300201C
:101C5000AC030020F8030020BC0300202003002078
:101C6000140300203C040020F403002010B5A8B1A8
:101C70000446104B1B6843B14FF0500383F31188A7
:101C8000BFF36F8FBFF34F8FFEE7FFF7DFFE00213B
:101C90002046FFF7E5FDFFF76DFF48B94FF0E02361
:101CA0004FF08052C3F8042DBFF34F8FBFF36F8FF7
:101CB00010BD00BFB4030020204B1B681BB1204B9C
:101CC00001221A6070471E4B00221A601D4B1B68D0
:101CD000B3FA83F3DBB2C3F11F0303EB83018A0082
:101CE00019498A5842B94FF0500383F31188BFF362
:101CF0006F8FBFF34F8FFEE7134903EB8300820022
:101D00000A4450684068506003EB830C4FEA8C0231
:101D100008321144884209D003EB83039A000A4B2E
:101D200013445B68DA68094B1A6070474068624682
:101D30009100054A0A445060EEE700BFB40300205A
:101D40003C040020BC0300202003002014030020DA
:101D5000842801D0033070470020704708B5FFF792
:101D60003BFE002008BD2DE9F04387B004460F4636
:101D70004569BDB18669AEB1D0F80480D0F8009055
:101D8000B0F90800FFF7E4FF0296019500903B468A
:101D9000226949464046FFF7AFFD0590059807B018
:101DA000BDE8F08365682668D4F81080B4F90800AF
:101DB000FFF7CEFF05AB019300903B461FFA88F278
:101DC00031462846FFF7D3FD0128E7D00020E6E79B
:101DD00008B500B90120FFF749FF002008BD000049
:101DE000124A12F0070F1ED0D11D21F00701C1F5D4
:101DF000705313440A460E480260002141601344A8
:101E0000083B23F007030B48036059601960991AD7
:101E100051601360084B1960084B1960084B4FF074
:101E200000421A6070474FF47053E4E74404002006
:101E300058400020400400204C4000204840002032
:101E400044400020164B1A461B688342FBD351685E
:101E500002EB010C844509D0416800EB010C63459D
:101E600009D00360904219D0106070474068014467
:101E700051601046F0E710B40A4C2468A3420BD01E
:101E80005B681944416013681B680360904200D08E
:101E900010605DF8044B70470460F7E7704700BFBF
:101EA000584000204004002070B50546FFF7CEFDE5
:101EB000364B1B68A3B1364B1B681D424ED135B162
:101EC000083515F0070F02D025F007050835002D5D
:101ED00046D0304B1B68AB4251D32F4A146804E004
:101EE000FFF77EFFE7E722461C466368AB4202D25B
:101EF0002368002BF7D1254B1B68A34241D01668FD
:101F000008362368136063685B1B102B10D96019B7
:101F100010F0070F08D04FF0500383F31188BFF380
:101F20006F8FBFF34F8FFEE743606560FFF78AFF57
:101F3000626818490B689B1A0B60184909688B4244
:101F400001D216490B60124B1B68134363600023D8
:101F50002360134A13680133136002E0002600E097
:101F60000026FFF707FE16F0070F0CD04FF05003C6
:101F700083F31188BFF36F8FBFF34F8FFEE7002607
:101F8000EFE70026EDE7304670BD00BF40040020BB
:101F90004440002048400020584000204C40002091
:101FA00050400020002834D038B50446A0F1080580
:101FB00050F8043C174A1268134208D14FF05003FE
:101FC00083F31188BFF36F8FBFF34F8FFEE750F895
:101FD000081C41B14FF0500383F31188BFF36F8F9A
:101FE000BFF34F8FFEE723EA020340F8043CFFF7FC
:101FF0002DFD54F8041C084A13680B44136028464E
:10200000FFF720FF054A136801331360FFF7B2FDA5
:1020100038BD704744400020484000205440002014
:1020200082B0002301930D4B1B68B3F1FF3F08D032
:102030004FF0500383F31188BFF36F8FBFF34F8FBF
:10204000FEE74FF0500383F31188BFF36F8FBFF3A8
:102050004F8F019B002BFCD002B070471000002076
:1020600008480068006880F308884FF0000080F39B
:10207000148862B661B6BFF34F8FBFF36F8F00DF76
:1020800000BF000008ED00E0DFF80C00016841F43B
:10209000700101607047000088ED00E04FF0807330
:1020A00040F8043C21F0010140F8081C054B40F8C1
:1020B0000C3C40F8202C6FF0020340F8243C4438DC
:1020C000704700BF21200008000000000000000051
:1020D000074B19680868B0E8F04F80F30988BFF330
:1020E0006F8F4FF0000080F311887047AFF30080CE
:1020F000140300204FF0500383F31188BFF36F8F58
:10210000BFF34F8F0B4A136801331360012B00D0CC
:1021100070474FF0E023D3F8043D13F0FF0FF7D0E2
:102120004FF0500383F31188BFF36F8FBFF34F8FCE
:10213000FEE700BF10000020094B1B6843B94FF0B9
:10214000500383F31188BFF36F8FBFF34F8FFEE708
:10215000013B034A13600BB983F31188704700BF3A
:10216000100000200000000000000000000000003F
:10217000EFF30980BFF36F8F154B1A681EF0100F35
:1021800008BF20ED108A20E9F04F10602DE909000A
:102190004FF0500080F31188BFF34F8FBFF36F8F64
:1021A000FFF78AFD4FF0000080F3118809BC196821
:1021B0000868B0E8F04F1EF0100F08BFB0EC108AAE
:1021C00080F30988BFF36F8F704700BFAFF30080C3
:1021D0001403002008B54FF0500383F31188BFF3B8
:1021E0006F8FBFF34F8FFFF739FC28B14FF0E0231B
:1021F0004FF08052C3F8042D002383F3118808BDEB
:102200004FF0E022002313619361054B1B680549E1
:10221000A1FB03139B09013B536107231361704723
:102220000C000020D34D62104FF0E023D3F8002DB6
:102230003D4B9A421CD04FF0E023D3F8002D3B4B8E
:102240009A421ED030B583B0394B1A78D2B201927F
:10225000FF221A701B78DBB28DF803309DF8033033
:1022600003F05003334A1370334B07221A601BE00C
:102270004FF0500383F31188BFF36F8FBFF34F8F7D
:10228000FEE74FF0500383F31188BFF36F8FBFF366
:102290004F8FFEE7284A1368013B13609DF8033017
:1022A0005B00DBB28DF803309DF8033013F0800F34
:1022B000F0D1214B1B68032B08D04FF0500383F360
:1022C0001188BFF36F8FBFF34F8FFEE71B021A4ACF
:1022D000136003F4E0631360019BDBB2144A1370D4
:1022E0004FF0E024D4F8203D43F47003C4F8203DBF
:1022F000D4F8203D43F07043C4F8203DFFF780FF41
:1023000000250E4B1D60FFF7BFFED4F8343F43F0AD
:102310004043C4F8343FFFF7A3FEFFF7CDFCFFF7BF
:102320007FFE284603B030BD71C20F4170C20F411D
:1023300000E400E060400020644000201000002025
:1023400010B584B004AB03E907000B460A78042AF1
:1023500038D8DFE802F0030D161F280001221A709A
:102360001B78013B032B43D8DFE803F02F44586C64
:10237000019A126812B102221A70F1E701221A7052
:10238000EEE7019A126812B104221A70E8E70122FE
:102390001A70E5E7019A126812B901221A70DFE794
:1023A00002221A70DCE7019A126812B901221A702F
:1023B000D6E7039A126812B103221A70D0E70222FC
:1023C0001A70CDE700221A70CAE7284C00224FF499
:1023D00080512046FEF789FE00224FF4005120462E
:1023E000FEF783FE00224FF480412046FEF77DFE7B
:1023F00004B010BD1D4C00224FF480512046FEF762
:1024000074FE00224FF400512046FEF76EFE0122BA
:102410004FF480412046FEF768FEE9E7134C0022A6
:102420004FF480512046FEF760FE01224FF4005128
:102430002046FEF75AFE00224FF480412046FEF768
:1024400054FED5E7094C01224FF480512046FEF797
:102450004CFE00224FF400512046FEF746FE0022BB
:102460004FF480412046FEF740FEC1E7000C0240D9
:10247000026041608360704784B004AB03E90700E9
:1024800013461278042A32D8DFE802F00328160D2A
:102490001F0003221A701B78013B032B2DD8DFE8A5
:1024A00003F0362E2932029A126812B102221A70F3
:1024B000F1E703221A70EEE7029A126812B90422B9
:1024C0001A70E8E702221A70E5E7029A126812B160
:1024D00001221A70DFE704221A70DCE7029A126800
:1024E00012B903221A70D6E701221A70D3E700222C
:1024F0001A70D0E7019B00221A6004B07047019B5C
:1025000001221A60F9E7019B01221A60F5E7019B9D
:1025100000221A60F1E701604260836070470000AA
:10252000DFF834D00D480E490E4A002302E0D4589B
:10253000C4500433C4188C42F9D30B4A0B4C00230B
:1025400001E013600432A242FBD3FEF7F3FF00F078
:1025500011F8FEF7B1F870470000022000000020DB
:102560001400002098260008140000206840002075
:10257000FEE7000070B50D4D0D4C641BA410002645
:10258000A64209D10B4D0C4C00F020F8641BA4109E
:102590000026A64205D170BD55F8043B9847013688
:1025A000EEE755F8043B98470136F2E7902600081D
:1025B000902600089026000894260008024403464E
:1025C000934200D1704703F8011BF9E7F8B500BF4B
:1025D000F8BC08BC9E467047F8B500BFF8BC08BC04
:0425E0009E4670475C
:1025E400382600086905000800000000000000000B
:1025F40080000000000000000000000048260008E1
:1026040085050008020000000000000080000000B2
:10261400000000000000000058260008C105000862
:102624000100000000000000800000000000000025
:1026340000000000747261666669635F6C696768B4
:10264400745F7400656E61626C655F627574746F4B
:102654006E5F74007065646573747269616E5F6245
:1026640075747400000000000000000001020304FF
:1026740006070809000000000102030449444C4510
:042684000000000052
:0826880078DBFF7F0100000078
:04269000B501000888
:0426940091010008A8
:102698000100000001000000100000000024F40008
:0426A800AAAAAAAA86
:0400000508002521A9
:00000001FF
